{
  "address": "0x7B2079663bbd6CEe1a91E97c56Ea61F97e830006",
  "abi": [
    {
      "inputs": [
        {
          "internalType": "address",
          "name": "_priceFeed",
          "type": "address"
        }
      ],
      "stateMutability": "nonpayable",
      "type": "constructor"
    },
    {
      "inputs": [],
      "name": "MINIMUM_USD",
      "outputs": [
        {
          "internalType": "uint256",
          "name": "",
          "type": "uint256"
        }
      ],
      "stateMutability": "view",
      "type": "function"
    },
    {
      "inputs": [],
      "name": "chepWithdraw",
      "outputs": [],
      "stateMutability": "nonpayable",
      "type": "function"
    },
    {
      "inputs": [],
      "name": "fund",
      "outputs": [],
      "stateMutability": "payable",
      "type": "function"
    },
    {
      "inputs": [
        {
          "internalType": "uint256",
          "name": "index",
          "type": "uint256"
        }
      ],
      "name": "getFundAddressByIndex",
      "outputs": [
        {
          "internalType": "address",
          "name": "",
          "type": "address"
        }
      ],
      "stateMutability": "view",
      "type": "function"
    },
    {
      "inputs": [
        {
          "internalType": "address",
          "name": "fAddress",
          "type": "address"
        }
      ],
      "name": "getFundByAddress",
      "outputs": [
        {
          "internalType": "uint256",
          "name": "",
          "type": "uint256"
        }
      ],
      "stateMutability": "view",
      "type": "function"
    },
    {
      "inputs": [
        {
          "internalType": "uint256",
          "name": "index",
          "type": "uint256"
        }
      ],
      "name": "getFunder",
      "outputs": [
        {
          "internalType": "address",
          "name": "",
          "type": "address"
        }
      ],
      "stateMutability": "view",
      "type": "function"
    },
    {
      "inputs": [],
      "name": "getOwner",
      "outputs": [
        {
          "internalType": "address",
          "name": "",
          "type": "address"
        }
      ],
      "stateMutability": "view",
      "type": "function"
    },
    {
      "inputs": [],
      "name": "getPriceFeed",
      "outputs": [
        {
          "internalType": "contract AggregatorV3Interface",
          "name": "",
          "type": "address"
        }
      ],
      "stateMutability": "view",
      "type": "function"
    },
    {
      "inputs": [],
      "name": "getVersion",
      "outputs": [
        {
          "internalType": "uint256",
          "name": "",
          "type": "uint256"
        }
      ],
      "stateMutability": "view",
      "type": "function"
    },
    {
      "inputs": [],
      "name": "withdraw",
      "outputs": [],
      "stateMutability": "nonpayable",
      "type": "function"
    }
  ],
  "transactionHash": "0x8498561383e81305bb0a75374f391b953bcbe05562333dcbb292bdcda3a0fc67",
  "args": [
    "0xD4a33860578De61DBAbDc8BFdb98FD742fA7028e"
  ],
  "numDeployments": 4,
  "solcInputHash": "f5b5e9c3188bf0f3c1b4b3ccd7137ffb",
  "bytecode": "0x60c06040523480156200001157600080fd5b50604051620016c2380380620016c2833981810160405281019062000037919062000110565b3373ffffffffffffffffffffffffffffffffffffffff1660808173ffffffffffffffffffffffffffffffffffffffff16815250508073ffffffffffffffffffffffffffffffffffffffff1660a08173ffffffffffffffffffffffffffffffffffffffff16815250505062000142565b600080fd5b600073ffffffffffffffffffffffffffffffffffffffff82169050919050565b6000620000d882620000ab565b9050919050565b620000ea81620000cb565b8114620000f657600080fd5b50565b6000815190506200010a81620000df565b92915050565b600060208284031215620001295762000128620000a6565b5b60006200013984828501620000f9565b91505092915050565b60805160a05161153e6200018460003960008181610235015281816105bd01526109970152600081816102e00152818161059501526105fa015261153e6000f3fe6080604052600436106100915760003560e01c8063a39f28e211610059578063a39f28e214610159578063af8b14ed14610170578063b60d4288146101ad578063d7b4750c146101b7578063e4d89cf6146101f457610091565b80630d8e6e2c146100965780633ccfd60b146100c15780636b69a592146100d8578063893d20e8146101035780639e87a5cd1461012e575b600080fd5b3480156100a257600080fd5b506100ab610231565b6040516100b89190610d98565b60405180910390f35b3480156100cd57600080fd5b506100d66102c7565b005b3480156100e457600080fd5b506100ed610584565b6040516100fa9190610d98565b60405180910390f35b34801561010f57600080fd5b50610118610591565b6040516101259190610df4565b60405180910390f35b34801561013a57600080fd5b506101436105b9565b6040516101509190610e6e565b60405180910390f35b34801561016557600080fd5b5061016e6105e1565b005b34801561017c57600080fd5b5061019760048036038101906101929190610eba565b610902565b6040516101a49190610df4565b60405180910390f35b6101b5610949565b005b3480156101c357600080fd5b506101de60048036038101906101d99190610eba565b610ac1565b6040516101eb9190610df4565b60405180910390f35b34801561020057600080fd5b5061021b60048036038101906102169190610f13565b610b08565b6040516102289190610d98565b60405180910390f35b60007f000000000000000000000000000000000000000000000000000000000000000073ffffffffffffffffffffffffffffffffffffffff166354fd4d506040518163ffffffff1660e01b8152600401602060405180830381865afa15801561029e573d6000803e3d6000fd5b505050506040513d601f19601f820116820180604052508101906102c29190610f55565b905090565b3373ffffffffffffffffffffffffffffffffffffffff167f000000000000000000000000000000000000000000000000000000000000000073ffffffffffffffffffffffffffffffffffffffff1614610355576040517f08c379a000000000000000000000000000000000000000000000000000000000815260040161034c90610fdf565b60405180910390fd5b60005b6000805490508110156103fa5760006001600080848154811061037e5761037d610fff565b5b9060005260206000200160009054906101000a900473ffffffffffffffffffffffffffffffffffffffff1673ffffffffffffffffffffffffffffffffffffffff1673ffffffffffffffffffffffffffffffffffffffff1681526020019081526020016000208190555080806103f29061105d565b915050610358565b50600067ffffffffffffffff811115610416576104156110a5565b5b6040519080825280602002602001820160405280156104445781602001602082028036833780820191505090505b506000908051906020019061045a929190610cd8565b5060003373ffffffffffffffffffffffffffffffffffffffff166108fc479081150290604051600060405180830381858888f193505050509050806104d4576040517f08c379a00000000000000000000000000000000000000000000000000000000081526004016104cb90611120565b60405180910390fd5b60003373ffffffffffffffffffffffffffffffffffffffff16476040516104fa90611171565b60006040518083038185875af1925050503d8060008114610537576040519150601f19603f3d011682016040523d82523d6000602084013e61053c565b606091505b5050905080610580576040517f08c379a000000000000000000000000000000000000000000000000000000000815260040161057790611120565b60405180910390fd5b5050565b6802b5e3af16b188000081565b60007f0000000000000000000000000000000000000000000000000000000000000000905090565b60007f0000000000000000000000000000000000000000000000000000000000000000905090565b3373ffffffffffffffffffffffffffffffffffffffff167f000000000000000000000000000000000000000000000000000000000000000073ffffffffffffffffffffffffffffffffffffffff161461066f576040517f08c379a000000000000000000000000000000000000000000000000000000000815260040161066690610fdf565b60405180910390fd5b6000808054806020026020016040519081016040528092919081815260200182805480156106f257602002820191906000526020600020905b8160009054906101000a900473ffffffffffffffffffffffffffffffffffffffff1673ffffffffffffffffffffffffffffffffffffffff16815260200190600101908083116106a8575b5050505050905060005b81518110156107775760006001600084848151811061071e5761071d610fff565b5b602002602001015173ffffffffffffffffffffffffffffffffffffffff1673ffffffffffffffffffffffffffffffffffffffff16815260200190815260200160002081905550808061076f9061105d565b9150506106fc565b50600067ffffffffffffffff811115610793576107926110a5565b5b6040519080825280602002602001820160405280156107c15781602001602082028036833780820191505090505b50600090805190602001906107d7929190610cd8565b5060003373ffffffffffffffffffffffffffffffffffffffff166108fc479081150290604051600060405180830381858888f19350505050905080610851576040517f08c379a000000000000000000000000000000000000000000000000000000000815260040161084890611120565b60405180910390fd5b60003373ffffffffffffffffffffffffffffffffffffffff164760405161087790611171565b60006040518083038185875af1925050503d80600081146108b4576040519150601f19603f3d011682016040523d82523d6000602084013e6108b9565b606091505b50509050806108fd576040517f08c379a00000000000000000000000000000000000000000000000000000000081526004016108f490611120565b60405180910390fd5b505050565b600080828154811061091757610916610fff565b5b9060005260206000200160009054906101000a900473ffffffffffffffffffffffffffffffffffffffff169050919050565b6109886040518060400160405280600f81526020017f6d73672e73656e6465722d2d2d2d2d000000000000000000000000000000000081525033610b51565b6802b5e3af16b18800006109c57f000000000000000000000000000000000000000000000000000000000000000034610bed90919063ffffffff16565b1015610a06576040517f08c379a00000000000000000000000000000000000000000000000000000000081526004016109fd906111f8565b60405180910390fd5b6000339080600181540180825580915050600190039060005260206000200160009091909190916101000a81548173ffffffffffffffffffffffffffffffffffffffff021916908373ffffffffffffffffffffffffffffffffffffffff16021790555034600160003373ffffffffffffffffffffffffffffffffffffffff1673ffffffffffffffffffffffffffffffffffffffff1681526020019081526020016000206000828254610ab89190611218565b92505081905550565b6000808281548110610ad657610ad5610fff565b5b9060005260206000200160009054906101000a900473ffffffffffffffffffffffffffffffffffffffff169050919050565b6000600160008373ffffffffffffffffffffffffffffffffffffffff1673ffffffffffffffffffffffffffffffffffffffff168152602001908152602001600020549050919050565b610be98282604051602401610b679291906112cb565b6040516020818303038152906040527f319af333000000000000000000000000000000000000000000000000000000007bffffffffffffffffffffffffffffffffffffffffffffffffffffffff19166020820180517bffffffffffffffffffffffffffffffffffffffffffffffffffffffff8381831617835250505050610c1e565b5050565b6000670de0b6b3a7640000610c0183610c47565b84610c0c91906112fb565b610c16919061136c565b905092915050565b60008151905060006a636f6e736f6c652e6c6f679050602083016000808483855afa5050505050565b6000808273ffffffffffffffffffffffffffffffffffffffff1663feaf968c6040518163ffffffff1660e01b815260040160a060405180830381865afa158015610c95573d6000803e3d6000fd5b505050506040513d601f19601f82011682018060405250810190610cb99190611415565b5050509150506402540be40081610cd09190611490565b915050919050565b828054828255906000526020600020908101928215610d51579160200282015b82811115610d505782518260006101000a81548173ffffffffffffffffffffffffffffffffffffffff021916908373ffffffffffffffffffffffffffffffffffffffff16021790555091602001919060010190610cf8565b5b509050610d5e9190610d62565b5090565b5b80821115610d7b576000816000905550600101610d63565b5090565b6000819050919050565b610d9281610d7f565b82525050565b6000602082019050610dad6000830184610d89565b92915050565b600073ffffffffffffffffffffffffffffffffffffffff82169050919050565b6000610dde82610db3565b9050919050565b610dee81610dd3565b82525050565b6000602082019050610e096000830184610de5565b92915050565b6000819050919050565b6000610e34610e2f610e2a84610db3565b610e0f565b610db3565b9050919050565b6000610e4682610e19565b9050919050565b6000610e5882610e3b565b9050919050565b610e6881610e4d565b82525050565b6000602082019050610e836000830184610e5f565b92915050565b600080fd5b610e9781610d7f565b8114610ea257600080fd5b50565b600081359050610eb481610e8e565b92915050565b600060208284031215610ed057610ecf610e89565b5b6000610ede84828501610ea5565b91505092915050565b610ef081610dd3565b8114610efb57600080fd5b50565b600081359050610f0d81610ee7565b92915050565b600060208284031215610f2957610f28610e89565b5b6000610f3784828501610efe565b91505092915050565b600081519050610f4f81610e8e565b92915050565b600060208284031215610f6b57610f6a610e89565b5b6000610f7984828501610f40565b91505092915050565b600082825260208201905092915050565b7f6f6e6c79206f776e65722063616e207769746864726177000000000000000000600082015250565b6000610fc9601783610f82565b9150610fd482610f93565b602082019050919050565b60006020820190508181036000830152610ff881610fbc565b9050919050565b7f4e487b7100000000000000000000000000000000000000000000000000000000600052603260045260246000fd5b7f4e487b7100000000000000000000000000000000000000000000000000000000600052601160045260246000fd5b600061106882610d7f565b91507fffffffffffffffffffffffffffffffffffffffffffffffffffffffffffffffff820361109a5761109961102e565b5b600182019050919050565b7f4e487b7100000000000000000000000000000000000000000000000000000000600052604160045260246000fd5b7f73656e64206661696c0000000000000000000000000000000000000000000000600082015250565b600061110a600983610f82565b9150611115826110d4565b602082019050919050565b60006020820190508181036000830152611139816110fd565b9050919050565b600081905092915050565b50565b600061115b600083611140565b91506111668261114b565b600082019050919050565b600061117c8261114e565b9150819050919050565b7f56616c75652073686f756c64206265206d6f7265207468656e2031204574686560008201527f7200000000000000000000000000000000000000000000000000000000000000602082015250565b60006111e2602183610f82565b91506111ed82611186565b604082019050919050565b60006020820190508181036000830152611211816111d5565b9050919050565b600061122382610d7f565b915061122e83610d7f565b92508282019050808211156112465761124561102e565b5b92915050565b600081519050919050565b60005b8381101561127557808201518184015260208101905061125a565b60008484015250505050565b6000601f19601f8301169050919050565b600061129d8261124c565b6112a78185610f82565b93506112b7818560208601611257565b6112c081611281565b840191505092915050565b600060408201905081810360008301526112e58185611292565b90506112f46020830184610de5565b9392505050565b600061130682610d7f565b915061131183610d7f565b925082820261131f81610d7f565b915082820484148315176113365761133561102e565b5b5092915050565b7f4e487b7100000000000000000000000000000000000000000000000000000000600052601260045260246000fd5b600061137782610d7f565b915061138283610d7f565b9250826113925761139161133d565b5b828204905092915050565b600069ffffffffffffffffffff82169050919050565b6113bc8161139d565b81146113c757600080fd5b50565b6000815190506113d9816113b3565b92915050565b6000819050919050565b6113f2816113df565b81146113fd57600080fd5b50565b60008151905061140f816113e9565b92915050565b600080600080600060a0868803121561143157611430610e89565b5b600061143f888289016113ca565b955050602061145088828901611400565b945050604061146188828901610f40565b935050606061147288828901610f40565b9250506080611483888289016113ca565b9150509295509295909350565b600061149b826113df565b91506114a6836113df565b92508282026114b4816113df565b91507f800000000000000000000000000000000000000000000000000000000000000084146000841216156114ec576114eb61102e565b5b82820584148315176115015761150061102e565b5b509291505056fea26469706673582212204b265f6f23f150b4b439fc994a7903fa77cdb039d0cd6e7e446e3e4559d2079c64736f6c63430008110033",
  "devdoc": {
    "kind": "dev",
    "methods": {},
    "version": 1
  },
  "userdoc": {
    "kind": "user",
    "methods": {},
    "version": 1
  },
  "storageLayout": {
    "storage": [
      {
        "astId": 68,
        "contract": "contracts/FundMe.sol:FundMe",
        "label": "s_funder",
        "offset": 0,
        "slot": "0",
        "type": "t_array(t_address)dyn_storage"
      },
      {
        "astId": 72,
        "contract": "contracts/FundMe.sol:FundMe",
        "label": "s_funderMap",
        "offset": 0,
        "slot": "1",
        "type": "t_mapping(t_address,t_uint256)"
      }
    ],
    "types": {
      "t_address": {
        "encoding": "inplace",
        "label": "address",
        "numberOfBytes": "20"
      },
      "t_array(t_address)dyn_storage": {
        "base": "t_address",
        "encoding": "dynamic_array",
        "label": "address[]",
        "numberOfBytes": "32"
      },
      "t_mapping(t_address,t_uint256)": {
        "encoding": "mapping",
        "key": "t_address",
        "label": "mapping(address => uint256)",
        "numberOfBytes": "32",
        "value": "t_uint256"
      },
      "t_uint256": {
        "encoding": "inplace",
        "label": "uint256",
        "numberOfBytes": "32"
      }
    }
  }
}