{
  "address": "0x5A4358155B64eE1605655aB6e47Bca477B0E41F3",
  "abi": [
    {
      "inputs": [
        {
          "internalType": "address",
          "name": "_priceFeed",
          "type": "address"
        }
      ],
      "stateMutability": "nonpayable",
      "type": "constructor"
    },
    {
      "inputs": [],
      "name": "MINIMUM_USD",
      "outputs": [
        {
          "internalType": "uint256",
          "name": "",
          "type": "uint256"
        }
      ],
      "stateMutability": "view",
      "type": "function"
    },
    {
      "inputs": [],
      "name": "fund",
      "outputs": [],
      "stateMutability": "payable",
      "type": "function"
    },
    {
      "inputs": [
        {
          "internalType": "uint256",
          "name": "",
          "type": "uint256"
        }
      ],
      "name": "funder",
      "outputs": [
        {
          "internalType": "address",
          "name": "",
          "type": "address"
        }
      ],
      "stateMutability": "view",
      "type": "function"
    },
    {
      "inputs": [],
      "name": "owner_adrs",
      "outputs": [
        {
          "internalType": "address",
          "name": "",
          "type": "address"
        }
      ],
      "stateMutability": "view",
      "type": "function"
    },
    {
      "inputs": [],
      "name": "priceFeed",
      "outputs": [
        {
          "internalType": "contract AggregatorV3Interface",
          "name": "",
          "type": "address"
        }
      ],
      "stateMutability": "view",
      "type": "function"
    },
    {
      "inputs": [],
      "name": "withdraw",
      "outputs": [],
      "stateMutability": "nonpayable",
      "type": "function"
    }
  ],
  "transactionHash": "0xa8d6344f2ea0b30fb7c6f1fd0f6dd2ad747471ab750732511e231583a0bcfd95",
  "args": [
    "0xD4a33860578De61DBAbDc8BFdb98FD742fA7028e"
  ],
  "numDeployments": 3,
  "solcInputHash": "b35ea3bad13e8133656970a131e39a71",
  "bytecode": "0x60c060405234801561001057600080fd5b50604051610f18380380610f1883398181016040528101906100329190610103565b3373ffffffffffffffffffffffffffffffffffffffff1660808173ffffffffffffffffffffffffffffffffffffffff16815250508073ffffffffffffffffffffffffffffffffffffffff1660a08173ffffffffffffffffffffffffffffffffffffffff168152505050610130565b600080fd5b600073ffffffffffffffffffffffffffffffffffffffff82169050919050565b60006100d0826100a5565b9050919050565b6100e0816100c5565b81146100eb57600080fd5b50565b6000815190506100fd816100d7565b92915050565b600060208284031215610119576101186100a0565b5b6000610127848285016100ee565b91505092915050565b60805160a051610db561016360003960008181610468015261049801526000818161017a01526101b50152610db56000f3fe6080604052600436106100555760003560e01c80631f2c92381461005a578063307fe23a146100975780633ccfd60b146100c25780636b69a592146100d9578063741bef1a14610104578063b60d42881461012f575b600080fd5b34801561006657600080fd5b50610081600480360381019061007c9190610766565b610139565b60405161008e91906107d4565b60405180910390f35b3480156100a357600080fd5b506100ac610178565b6040516100b991906107d4565b60405180910390f35b3480156100ce57600080fd5b506100d761019c565b005b3480156100e557600080fd5b506100ee610459565b6040516100fb91906107fe565b60405180910390f35b34801561011057600080fd5b50610119610466565b6040516101269190610878565b60405180910390f35b61013761048a565b005b6000818154811061014957600080fd5b906000526020600020016000915054906101000a900473ffffffffffffffffffffffffffffffffffffffff1681565b7f000000000000000000000000000000000000000000000000000000000000000081565b3373ffffffffffffffffffffffffffffffffffffffff167f000000000000000000000000000000000000000000000000000000000000000073ffffffffffffffffffffffffffffffffffffffff161461022a576040517f08c379a0000000000000000000000000000000000000000000000000000000008152600401610221906108f0565b60405180910390fd5b60005b6000805490508110156102cf5760006001600080848154811061025357610252610910565b5b9060005260206000200160009054906101000a900473ffffffffffffffffffffffffffffffffffffffff1673ffffffffffffffffffffffffffffffffffffffff1673ffffffffffffffffffffffffffffffffffffffff1681526020019081526020016000208190555080806102c79061096e565b91505061022d565b50600067ffffffffffffffff8111156102eb576102ea6109b6565b5b6040519080825280602002602001820160405280156103195781602001602082028036833780820191505090505b506000908051906020019061032f929190610684565b5060003373ffffffffffffffffffffffffffffffffffffffff166108fc479081150290604051600060405180830381858888f193505050509050806103a9576040517f08c379a00000000000000000000000000000000000000000000000000000000081526004016103a090610a31565b60405180910390fd5b60003373ffffffffffffffffffffffffffffffffffffffff16476040516103cf90610a82565b60006040518083038185875af1925050503d806000811461040c576040519150601f19603f3d011682016040523d82523d6000602084013e610411565b606091505b5050905080610455576040517f08c379a000000000000000000000000000000000000000000000000000000000815260040161044c90610a31565b60405180910390fd5b5050565b6802b5e3af16b188000081565b7f000000000000000000000000000000000000000000000000000000000000000081565b670de0b6b3a76400006104c67f0000000000000000000000000000000000000000000000000000000000000000346105c290919063ffffffff16565b1015610507576040517f08c379a00000000000000000000000000000000000000000000000000000000081526004016104fe90610b09565b60405180910390fd5b6000339080600181540180825580915050600190039060005260206000200160009091909190916101000a81548173ffffffffffffffffffffffffffffffffffffffff021916908373ffffffffffffffffffffffffffffffffffffffff16021790555034600160003373ffffffffffffffffffffffffffffffffffffffff1673ffffffffffffffffffffffffffffffffffffffff16815260200190815260200160002060008282546105b99190610b29565b92505081905550565b6000670de0b6b3a76400006105d6836105f3565b846105e19190610b5d565b6105eb9190610bce565b905092915050565b6000808273ffffffffffffffffffffffffffffffffffffffff1663feaf968c6040518163ffffffff1660e01b815260040160a060405180830381865afa158015610641573d6000803e3d6000fd5b505050506040513d601f19601f820116820180604052508101906106659190610c8c565b5050509150506402540be4008161067c9190610d07565b915050919050565b8280548282559060005260206000209081019282156106fd579160200282015b828111156106fc5782518260006101000a81548173ffffffffffffffffffffffffffffffffffffffff021916908373ffffffffffffffffffffffffffffffffffffffff160217905550916020019190600101906106a4565b5b50905061070a919061070e565b5090565b5b8082111561072757600081600090555060010161070f565b5090565b600080fd5b6000819050919050565b61074381610730565b811461074e57600080fd5b50565b6000813590506107608161073a565b92915050565b60006020828403121561077c5761077b61072b565b5b600061078a84828501610751565b91505092915050565b600073ffffffffffffffffffffffffffffffffffffffff82169050919050565b60006107be82610793565b9050919050565b6107ce816107b3565b82525050565b60006020820190506107e960008301846107c5565b92915050565b6107f881610730565b82525050565b600060208201905061081360008301846107ef565b92915050565b6000819050919050565b600061083e61083961083484610793565b610819565b610793565b9050919050565b600061085082610823565b9050919050565b600061086282610845565b9050919050565b61087281610857565b82525050565b600060208201905061088d6000830184610869565b92915050565b600082825260208201905092915050565b7f6f6e6c79206f776e65722063616e207769746864726177000000000000000000600082015250565b60006108da601783610893565b91506108e5826108a4565b602082019050919050565b60006020820190508181036000830152610909816108cd565b9050919050565b7f4e487b7100000000000000000000000000000000000000000000000000000000600052603260045260246000fd5b7f4e487b7100000000000000000000000000000000000000000000000000000000600052601160045260246000fd5b600061097982610730565b91507fffffffffffffffffffffffffffffffffffffffffffffffffffffffffffffffff82036109ab576109aa61093f565b5b600182019050919050565b7f4e487b7100000000000000000000000000000000000000000000000000000000600052604160045260246000fd5b7f73656e64206661696c0000000000000000000000000000000000000000000000600082015250565b6000610a1b600983610893565b9150610a26826109e5565b602082019050919050565b60006020820190508181036000830152610a4a81610a0e565b9050919050565b600081905092915050565b50565b6000610a6c600083610a51565b9150610a7782610a5c565b600082019050919050565b6000610a8d82610a5f565b9150819050919050565b7f56616c75652073686f756c64206265206d6f7265207468656e2031204574686560008201527f7200000000000000000000000000000000000000000000000000000000000000602082015250565b6000610af3602183610893565b9150610afe82610a97565b604082019050919050565b60006020820190508181036000830152610b2281610ae6565b9050919050565b6000610b3482610730565b9150610b3f83610730565b9250828201905080821115610b5757610b5661093f565b5b92915050565b6000610b6882610730565b9150610b7383610730565b9250828202610b8181610730565b91508282048414831517610b9857610b9761093f565b5b5092915050565b7f4e487b7100000000000000000000000000000000000000000000000000000000600052601260045260246000fd5b6000610bd982610730565b9150610be483610730565b925082610bf457610bf3610b9f565b5b828204905092915050565b600069ffffffffffffffffffff82169050919050565b610c1e81610bff565b8114610c2957600080fd5b50565b600081519050610c3b81610c15565b92915050565b6000819050919050565b610c5481610c41565b8114610c5f57600080fd5b50565b600081519050610c7181610c4b565b92915050565b600081519050610c868161073a565b92915050565b600080600080600060a08688031215610ca857610ca761072b565b5b6000610cb688828901610c2c565b9550506020610cc788828901610c62565b9450506040610cd888828901610c77565b9350506060610ce988828901610c77565b9250506080610cfa88828901610c2c565b9150509295509295909350565b6000610d1282610c41565b9150610d1d83610c41565b9250828202610d2b81610c41565b91507f80000000000000000000000000000000000000000000000000000000000000008414600084121615610d6357610d6261093f565b5b8282058414831517610d7857610d7761093f565b5b509291505056fea2646970667358221220370f751934335a24a734a316bfe2be3ffddbed20c85b332356ba62b481ad668164736f6c63430008110033",
  "devdoc": {
    "kind": "dev",
    "methods": {},
    "version": 1
  },
  "userdoc": {
    "kind": "user",
    "methods": {},
    "version": 1
  },
  "storageLayout": {
    "storage": [
      {
        "astId": 84,
        "contract": "contracts/FundMe.sol:FundMe",
        "label": "funder",
        "offset": 0,
        "slot": "0",
        "type": "t_array(t_address)dyn_storage"
      },
      {
        "astId": 88,
        "contract": "contracts/FundMe.sol:FundMe",
        "label": "funderMap",
        "offset": 0,
        "slot": "1",
        "type": "t_mapping(t_address,t_uint256)"
      }
    ],
    "types": {
      "t_address": {
        "encoding": "inplace",
        "label": "address",
        "numberOfBytes": "20"
      },
      "t_array(t_address)dyn_storage": {
        "base": "t_address",
        "encoding": "dynamic_array",
        "label": "address[]",
        "numberOfBytes": "32"
      },
      "t_mapping(t_address,t_uint256)": {
        "encoding": "mapping",
        "key": "t_address",
        "label": "mapping(address => uint256)",
        "numberOfBytes": "32",
        "value": "t_uint256"
      },
      "t_uint256": {
        "encoding": "inplace",
        "label": "uint256",
        "numberOfBytes": "32"
      }
    }
  }
}